:020000040001F9
:106000000040002045620100576201005962010012
:106010000000000000000000000000000000000080
:106020000000000000000000000000005B620100B2
:1060300000000000000000005D6201005F620100DE
:1060400061620100616201007D8201006162010004
:10605000616201000000000009800100616201002E
:106060006162010061620100616201006162010020
:106070006162010061620100616201006162010010
:1060800061620100D1800100616201006162010072
:10609000818101006162010089810100616201006A
:1060A0006162010061620100000000000000000068
:1060B00000000000000000000000000000000000E0
:1060C00000F002F800F04CF80CA030C80838241892
:1060D0002D18A246671EAB4654465D46AC4201D120
:1060E00000F03EF87E460F3E0FCCB6460126334206
:1060F00000D0FB1AA246AB4633431847407200005B
:10610000607200000023002400250026103A01D30D
:1061100078C1FBD8520700D330C100D50B6070475F
:1061200010B5702902D100F092F910BD002010BD09
:106130001FB5C046C0460098019901F0F2FA01F07F
:1061400009FE04000020002106F086FD401C60606E
:1061500001F00CFD00F030FE1FBD002004F0BCFC7F
:1061600004F092FD1146FFF7E3FF01F040FF05F058
:1061700046FA0000401E00BF00BF00BF00BF00BFC6
:1061800000BF00BF00BF00BF00BF00BF00BFF1D114
:1061900070470000144C144D0646064FF0B4034CF3
:1061A000024D024E014FF0B40748004700000000C6
:1061B00000000000000000210000000000000000BE
:1061C0000000000000000000F9FFFFFF016881F3FC
:1061D00008884068034AEFF305839A42DAD1024CFB
:1061E000A646004700000000FFFFFFFF401E00BF63
:1061F00000BF00BF00BF00BF00BF00BF00BF00BFA7
:1062000000BF00BF00BFF1D17047000070B5054668
:106210000C46164602E00FCC0FC5103E102EFAD2E7
:10622000082E02D303CC03C5083E042E07D301CCAD
:1062300001C5361F03E021782970641C6D1C761E91
:10624000F9D270BD074802680F210A430260064870
:10625000804706480047FEE7FEE7FEE7FEE7FEE769
:10626000FEE7000024050040DD810100C16001005F
:106270004343514330B55C18010C130C0D4692B2E8
:106280005D4380B251432C19054655430A0C09045D
:106290004D1962415843010C00044019514130BD71
:1062A000FEB5054610460C46184373D0AE468C46E4
:1062B0000020AD1A01469C4167D3664600270124A1
:1062C0003D46B61A9D4102D313463A4621246546FF
:1062D00076462F04360C3E432D0CB61A9D4104D34E
:1062E000150C1B042B4312041034654676462F060A
:1062F000360A3E432D0AB61A9D4104D3150E1B02E1
:106300002B4312020834654676462F0736093E4372
:106310002D09B61A9D4104D3150F1B012B43120101
:10632000241D65467646AF07B6083E43AD08B61A4B
:106330009D4104D3950F9B002B439200A41C6546FE
:106340007646EF0776083E436D08B61A9D411AD38C
:1063500092185B41641C16E0001876466546494178
:10636000B71A9D410191009009D36046B11A984136
:106370008E468446009801990025401C6941DD073E
:1063800052082A435B08641EE6D57246634603B092
:10639000F0BDFFE700200146C046C0462A4623461E
:1063A000F5E700000FB41CB5084B06AA7B4469460C
:1063B0000090059800F0F3FD04460020694600F0C7
:1063C00001FE20461CBC08BC04B01847150C000098
:1063D000F8B50F460188090502D5224C7C4402E03D
:1063E000204C7C440E3405460021243508E0160775
:1063F0001209360FA65D6E541E07491C32431B0955
:1064000016461E43F3D1224604780023240705D5FF
:10641000702F06D0002901D01132022300F061FD57
:10642000F8BD10320123F9E770B504460D46214648
:106430001068C046C0460023024629462046FFF7A2
:10644000C7FF70BDD21DD308DB000CCBC0E730B452
:10645000036820241268234303600823C36130BC0F
:106460000023B5E7EA6C0000F3B50446002081B0D4
:1064700020622046E1688847002872D0252802D093
:106480006268A168ABE0594F00267F442046E1686E
:1064900088472028054608DB312D06D27819203898
:1064A0000078002801D00643F0E7B00701D50420AA
:1064B00086430020E0610746A0612A2D0AD02846C5
:1064C00004F0EAFB002827D0303DB8000019009006
:1064D000856119E00298BA00121902C89161029010
:1064E0002046E1688847012F054617D1E06900285A
:1064F0001FDA202086431CE000980A218069484367
:1065000000994019303888612046E168884705467F
:1065100004F0C2FB0028EFD1012F0AD02E2D08D1A4
:106520002046E16888470546202006437F1C022F4D
:10653000C3DBA069002803DA4042A06101200643C2
:10654000F00701D0102086436C2D0BD0682D09D0A8
:106550004C2D3CD06A2D38D0742D38D07A2D36D0C1
:1065600016E040E0E1682F4620468847B8420546DD
:1065700009D16C2F29D001208002E1680643204612
:106580008847054604E06C2F1DD0FF2001300643EC
:10659000002D28D028464138192803D80120C002F0
:1065A00006432035204626602946029A1646FFF704
:1065B000B7FD002810D001280BD0F61DF008C00050
:1065C0000830029055E74020E1E78020D5E7002021
:1065D000D3E7361D02964CE762682846A1689047CB
:1065E000206A401C44E7206AFEBD0000646C000085
:1065F0000FB400B58DB010A909900B900020C043D6
:1066000000910A9000200C900748784406900748B3
:1066100078446A4607900F9909A800F0EDFC0DB088
:1066200008BC04B0184700000F0A0000290A000047
:10663000FFB51D460027FF4383B05C680020019032
:106640009E68A96904987F1C88470090296A88473A
:106650000028F6D10098401C0CD00320400284434F
:10666000002E19DD600614D500982B2809D02D289E
:106670000FD103E00020C04307B0F0BD012080022D
:106680000443A96904987F1C8847761E002E009059
:1066900002DD0098302803D00598002825D035E089
:1066A0000120A96940020443761E04987F1C884794
:1066B000002E009003DD782805D0582803D00598D7
:1066C000002810D022E00598002801D010281DD104
:1066D0000120A96940028443761E04987F1C8847E4
:1066E0000090102002E0082000E00A2005900DE054
:1066F0000121059A49020C430199761E514308185D
:106700000190A96904987F1C88470090002E05DD40
:106710000599009800F05BFC0028E9DAE969049823
:106720008847A00502D40120C043A5E7E00722D195
:10673000600611D56005019800D5404229680A1D00
:106740002A600968220501D5087014E0220701D5E6
:10675000088010E008600EE02868011D29600068CC
:10676000210502D50199017005E02107019901D5A4
:10677000018000E0016038467EE7000070B5044605
:10678000C068810713D0800601D5A56A04E0A1691D
:10679000606840182169451A204600F053FF002226
:1067A00006462946204600F07DFE304670BD00209A
:1067B00070BD70B5002802D0FFF7E0FF70BD002566
:1067C000074C6E1E08E02046FFF7D8FF002800D0D7
:1067D0003546206D44086400002CF4D1284670BD75
:1067E0007C2A0020F7B516460C46104600F07CF8CF
:1067F0002078611C61280AD0722802D0772839D10C
:1068000002E00125002404E00225042401E02D4DCE
:1068100008240222032301270878491C2B2806D0CC
:10682000622807D02039C87F742807D008E01D43AC
:106830001443F1E7042005433C43EDE710200443F3
:106840000098214604F06EFA411C13D000213161FA
:1068500071600121F5604902F1617061200704D582
:1068600030460222002100F01DFE306D38433065B5
:106870003046FEBD0020FEBDF8B50D460646124C62
:10688000206DC10704D0410804D044086400F7E734
:10689000224610E0542000F0CDFA070010D079080D
:1068A000206D4900012211430843542120653846D8
:1068B00000F048F93A4629463046FFF793FFF8BD05
:1068C0000020F8BD028000007C2A002010B50029BD
:1068D00002D0FF22013201E00122920201235B0279
:1068E00000F05AFE10BD0000FEB50446466900697E
:1068F0000F4F0190E56800200090A80707D02046C0
:1069000000F0A0FE304604F0CFF9002801DA384646
:10691000FEBD280502D5019800F0BDFA4C212046A5
:1069200000F010F9206D4008400020650098FEBD81
:10693000FFFFFFFF034610B50B439B070FD1042A4F
:106940000DD308C810C9121FA342F8D018BA21BA33
:10695000884201D9012010BD0020C04310BD002A8B
:1069600003D0D30703D0521C07E0002010BD0378EA
:106970000C78401C491C1B1B07D103780C78401C69
:10698000491C1B1B01D1921EF1D1184610BD0000FD
:1069900030B5441C03E00178401C00290DD081076C
:1069A000F9D10B4BDD0104C8D11A91432940FAD02B
:1069B000001B0A0603D0C01E30BD001B30BD0A04F8
:1069C00001D0801E30BD0902FCD0401E30BD000049
:1069D000010101010346F0B50B439B072DD1244D66
:1069E000EF01042A29D308C810C9121F5E1B9E4359
:1069F0003E4017D0D8B2E1B2401A3106014310D15F
:106A000098B2A1B2401A310401430AD118022102FE
:106A1000000A090A401A3102014302D1180E210E60
:106A2000401AF0BDA342DCD018BA21BA884201D97D
:106A30000120F0BD0020C043F0BD002A01D100209C
:106A4000F0BD03780C78401C491C002B0DD0A342EC
:106A50000BD1521E09D003780C78401C491C002B26
:106A600003D0A34201D1521EEBD1181BF0BD000090
:106A700001010101F8B5042A2CD3830712D00B7849
:106A8000491C0370401C521E83070BD00B78491C15
:106A90000370401C521E830704D00B78491C0370FE
:106AA000401C521E8B079B0F05D0C91ADF00202304
:106AB000DE1B08C90AE0FFF7A9FBF8BD1D4608C99F
:106AC000FD401C46B4402C4310C0121F042AF5D2CE
:106AD000F308C91A521EF0D40B78491C0370401CED
:106AE000521EEAD40B78491C0370401C521EE4D499
:106AF00009780170F8BDD2B210B513029A181304C8
:106B00009A1800F00EF810BD01E004C0091F042916
:106B1000FBD28B0701D50280801CC90700D0027010
:106B2000704700290BD0C30702D00270401C491ED9
:106B3000022904D3830702D50280801C891EE3E763
:106B40000022EEE70022DFE7024670B50A43920713
:106B50002AD11E4DEE0104C808C9541B9443344089
:106B600017D0D0B2D9B2401A2106014310D190B249
:106B700099B2401A210401430AD110021902000AF5
:106B8000090A401A2102014302D1100E190E401ABF
:106B900070BD9A42DFD010BA19BA884201D90120DB
:106BA00070BD0020C04370BD02780B78401C491CAA
:106BB000002A09D09A4207D102780B78401C491C60
:106BC000002A01D09A42EFD0D01A70BD0101010114
:106BD000002203098B4273D3030A8B4258D3030B61
:106BE0008B423CD3030C8B4221D312E003460B4370
:106BF0007FD4002243088B4274D303098B425FD3B6
:106C0000030A8B4244D3030B8B4228D3030C8B42E1
:106C10000DD3FF22090212BA030C8B4202D31212C7
:106C2000090265D0030B8B4219D300E0090AC30B9C
:106C30008B4201D3CB03C01A5241830B8B4201D349
:106C40008B03C01A5241430B8B4201D34B03C01A32
:106C50005241030B8B4201D30B03C01A5241C30AAA
:106C60008B4201D3CB02C01A5241830A8B4201D31B
:106C70008B02C01A5241430A8B4201D34B02C01A05
:106C80005241030A8B4201D30B02C01A5241CDD2AA
:106C9000C3098B4201D3CB01C01A524183098B42F5
:106CA00001D38B01C01A524143098B4201D34B01DE
:106CB000C01A524103098B4201D30B01C01A524141
:106CC000C3088B4201D3CB00C01A524183088B42C8
:106CD00001D38B00C01A524143088B4201D34B00B1
:106CE000C01A5241411A00D2014652411046704723
:106CF0005DE0CA0F00D04942031000D34042534028
:106D000000229C4603098B422DD3030A8B4212D3E7
:106D1000FC22890112BA030A8B420CD38901921119
:106D20008B4208D3890192118B4204D389013AD056
:106D3000921100E08909C3098B4201D3CB01C01A2B
:106D4000524183098B4201D38B01C01A524143093E
:106D50008B4201D34B01C01A524103098B4201D32C
:106D60000B01C01A5241C3088B4201D3CB00C01A99
:106D7000524183088B4201D38B00C01A5241D9D2B1
:106D800043088B4201D34B00C01A5241411A00D232
:106D90000146634652415B10104601D34042002B2E
:106DA00000D54942704763465B1000D3404201B5AD
:106DB0000020C046C04602BD70B5064C7C44064D5E
:106DC0007D4403E0206800198047241DAC42F9D1BE
:106DD00070BD0000AC660000B46600000146000211
:106DE000CA1504D00123DB071843002A12DBBE2397
:106DF0009A1A0AD40146D1401346203B01D4D84008
:106E0000704720239A1A90407047FF2248001206CC
:106E1000904202D9002001467047C817C043C117ED
:106E20007047000000487047742A002000487047EF
:106E3000782A002070B5064600F056FC05683046FA
:106E40000B30C408E400B44201D8002070BD68686B
:106E50002A46002818D00168A14211D30B462146CA
:106E600008318B4208D3436801194B6003681B1B30
:106E70000B605160046001E041685160001D70BD0D
:106E8000024640680028E6D12146284600F034FC3E
:106E90000028DCD170BD70B50446051F00F024FC4D
:106EA0000068002C1AD0446801E020466468002C79
:106EB00001D0AC42F9D301680A18AA4204D12A6869
:106EC00005468918016000E0456028684119A14223
:106ED00005D16168696021684018286070BD6C60E8
:106EE00070BDFFB504460D4681B024300090216886
:106EF000880604D51022E0699143216000E001205A
:106F0000A84201DD471B00E000270498A1697A1917
:106F10001018081AA0612078C00602D42046C04686
:106F2000C046002608E003986268A168805D90472B
:106F3000206A401C761C206204988642F3DB20788D
:106F4000C0060AD52046C046C04606E06268A16871
:106F500030209047206A401C206238467F1E00285F
:106F6000F4DC07E000986268A168405D9047206A01
:106F7000401C206228466D1E0028F3DC2046C046D7
:106F8000C0462078000602D5022005B0F0BD0120E1
:106F9000FBE7000001694A1C02610878704700B5F0
:106FA0008FB0029100210591054901937944039125
:106FB000114604906846FFF757FA0FB000BD000075
:106FC000E5FFFFFF0A681070521C0A6070473A28FC
:106FD00000D23038202302469A43412A01D310467A
:106FE0003738884201D30020C043704702685118E7
:106FF000137801601846704710B5D160054979448F
:10700000516105497944116200211161114600F076
:10701000C5FB10BDEBFFFFFF830700004268002A9D
:1070200008D001680B78491C002B03D0521E06C003
:10703000184670470121C160881E70474268002AC7
:107040000BD0C3680168002B07D183688B4204D042
:10705000491E521C06C0002070470020C0437047E4
:1070600070B50D4601461446D36850692A4603F0B0
:10707000F9FE002808DA411C08D0E168012240002E
:10708000920311434008E160281A70BD204600F0C9
:10709000A9FA0020C04370BDC1684022114392018B
:1070A000914300220260C1604905890F01D08260CE
:1070B000704702694168891AC269891A81607047FC
:1070C000FEB504460121C0688905774B0843E0609E
:1070D000010310D599108843E060810606D4E26A66
:1070E00061688A4200D80A46511A21601843E0605C
:1070F00020346079FEBD9843E060800602D52046CA
:1071000000F0C6FA6949E0680140012903D0204631
:1071100000F068FABFE02168002600290BDAC943B5
:1071200021600121A66009030843E0606068411CFA
:1071300061600078FEBD5E4908420DD005212660E1
:107140000903884340210843E06021696068401AD0
:10715000E169401AA0609EE02169002915D1C003B1
:1071600013D4E069FFF766FE0028206118D0E068BC
:107170000121C9020843E0608105890F03D1FF2185
:1071800001310843E0602069606060690090E06858
:10719000C1061BD5C0030FD5204600F053FA15E0F9
:1071A00020460321243020610120E061E0680902CB
:1071B000884301218902E4E721696068401AA169D6
:1071C0004118009803F078FE0028A0DBE068C003B7
:1071D0002AD56168E06A884200D808462169451AC4
:1071E000E069471B1BD0A0690190204600F02AFAF5
:1071F00001984119A061009803F05EFE002886DB2B
:10720000E068012149040843E060000202D5A0695A
:107210004019A061E1692069C91B45180DE02046AD
:1072200000F010FAE769F5E725696168A069E76988
:10723000491BE56240186560A061E0681021884341
:10724000E0604005800F02D0204600F02DFDE06890
:107250000121A66009030843E060000205D520690A
:10726000E06260600120C043FEBD224639462846E8
:10727000FFF7F6FE411C0ED029180028E1620DD060
:10728000401E2060681C6060E068012149040843DA
:10729000E0602878FEBD0020C043FEBD656020464A
:1072A000FFF7FAFEF7E70000000020008120000051
:1072B00040400000F8B505460C46C8680521C904E1
:1072C0008843012189050843E060800602D52046F5
:1072D00000F0DEF97149E0680140022903D0204640
:1072E00000F080F9BCE00521012249030140D203EE
:1072F00091420FD1C00306D56168E06A884200D888
:107300000846606006E02069E0626060606903F042
:10731000E1FCA061A1680022EEB200290EDAE0686B
:1073200083050BD4C943A1600921226049030843A6
:10733000E0606068411C61600670ACE0E0680121BB
:1073400049030843E060002020602069002831D113
:10735000606903F0D3FC012527462437ED0200289D
:1073600016D0A0898005800F08D0E069FFF762FD84
:107370000028206102D0E068284318E0012027613E
:10738000E061E068032109028843012189020DE0E0
:10739000E069FFF74FFD00282061EFD0E068284347
:1073A000E0608105890F03D1FF2101310843E060CE
:1073B00020696060E2683A4F2569D0051FD5616891
:1073C000E06A884200D80846411B05D0224628467C
:1073D00000F012F9002843D1E068010204D5E5620B
:1073E00000206560A06053E0691CE1626160E169B2
:1073F000491E3843A160E06030462E70F8BD10028F
:1074000001D53A4009E06068411C61600670E0689F
:1074100038430A2EE06006D00022E16A60688142AB
:1074200003D90B4602E00122F7E70346A7895B1B5D
:107430007F0504D4E7699F4201DD002A1ED0814206
:1074400000D801460F1A0020E5626560002BA0609D
:1074500009DD22461946284600F0CEF8002802D061
:107460000020C043F8BD002F08D0A069E562656028
:10747000C01BA061E06810210843E060E0680002E2
:1074800009D56168A069E562491B40186560A06183
:107490000120C043F8BD3046F8BD00008210000056
:1074A00000000100F8B5044616460D464769007B0A
:1074B000800730D0384603F021FC00282BD132461B
:1074C0001026002A25D0012A02D0022A23D104E066
:1074D000204600F029FB45191BE0384603F0FAFB73
:1074E000E16831430028E16004DA204600F07AF8D0
:1074F0000120F8BDC9030BD56268E16A914200D84A
:107500001146A26989182269891A814200DD08465C
:107510002D18002D01DA0220F8BDE16A6068E268EA
:10752000814206D29103E06203D5012149048A43D6
:107530003243A669AE4211DCE16A814201D90B46B1
:1075400000E003469F192369FF1AAF4206DD81421E
:1075500001D90F4600E007469F4206D12020024392
:107560000020A060A56220600DE0AD1BE669AE1BA7
:107570008142A66000D90846C01A281A206058190E
:10758000606020208243034802400020E2604034D3
:107590002072F8BDBFCFD7FF70B5C468A50713D060
:1075A000650211D4D51FF93D0AD0FF3D013D07D03A
:1075B000FF3DFF3D023D07D101462431012305E097
:1075C000074E5D1EB54201D3012070BD0161C3614C
:1075D00041600F2109028C431443C460002070BD38
:1075E000FFFFFF00C1688022114392039143C160F5
:1075F0000021816001607047F7B514460E4633489C
:10760000D5685769054209D03846A16903F054FC92
:10761000002811DB2D48C0430540E5602B4632466B
:107620003846009903F05CFC4200A1695208B21A86
:1076300089180028A16104D02046FFF7D3FF00205D
:10764000C043FEBD70B504460569C06A61688842E2
:1076500000D80846E1680522D2049143E160C903DD
:1076600014D5A84209D02246411B2846FFF7C4FF83
:10767000002802D00020C04370BDE5620020656094
:10768000A060E068012109048843E060002070BD2B
:1076900010B50446C06820218843E060A16AA06953
:1076A00088420ED02046FFF7CDFFE0680321090392
:1076B000884310210843E060A06AA0612069E0626D
:1076C00060600349E0680840E06010BD10000200FF
:1076D000BFBFFFFF10B500F009FB00F001FB10BDBC
:1076E00010B500F01BFB10BD00487047782B002040
:1076F000704770477047704738B504460A46002007
:10770000694600F083FB002805D002462046009918
:1077100000F028FB012038BD10B5012000F064FB0B
:1077200010BDF8B500F066FB054600200C461020A1
:10773000C0460646A819A0420DD932466946002027
:1077400000F064FB070001D100F04EFB0098A0425E
:1077500000D00546C419FFF7C7FFF61D07460560B0
:10776000F008C0004619284600F008F8B44204D0DA
:1077700031463868A21B00F0F5FAF8BD002101601F
:107780004160806070471020704710B5044600F0DB
:10779000D9FA0068005DC007C00F10BDF3B50C46F4
:1077A0008FB000200C90012000260E9008460C306F
:1077B0000390626903980121904705002ED0252D82
:1077C0002DD0216A8847002818D0626903980121CA
:1077D0009047216A88470028F7D16269411E0398C3
:1077E000904700E0761CA1690F988847216A884776
:1077F0000028F7D1E1690F988847DAE7A1690F9867
:107800008847A842074601D1761CD2E7E1690F9864
:1078100088477F1C02D10C98002877D071E16269FB
:10782000039800273D46394690472A280CD16269C3
:10783000039801219047012506E00A214F433F1894
:10784000303FEBD410200543626903980121904733
:10785000014630390A2903D2AF498F42DEDCECE71A
:10786000E90600D4AD4F6C280AD04C2810D0682807
:1078700024D06A282ED074280CD07A280AD00DE0A3
:1078800062690398012190476C2823D004211CE0F1
:10789000202005436269039801219047A76065286D
:1078A00065604FD026DC582839D01ADC452849D0ED
:1078B00012DC252834D04128B0D143E06269039816
:1078C00001219047682802D008210D43E6E70120F6
:1078D000C002DEE70220DCE7462833D047289DD1EE
:1078E00030E05B287BD061282CD0632877D06428D7
:1078F00094D15EE06F284CD009DC662822D067283E
:1079000020D0692826D06E2888D12EE0F5E0702896
:107910004AD073286CD075284BD07828CCD150E051
:10792000A1690F9888472528054600D16CE7E169D1
:107930000F9888476D1C00D16DE7E2E00A2248E00D
:107940000A224FE0012023466A460F99C043C046F1
:10795000C046CBE040212846234608436060A80784
:1079600001D5002235E000223CE02068011D2160A5
:107970000068290501D506701BE7290701D5068097
:1079800017E7A90703D5F1170660416011E7066004
:107990000FE740212846234608436060A80701D529
:1079A000082216E008221DE05D4928460840606074
:1079B00016E040212846234608436060A807BFD54B
:1079C000BCE74021284608436060A80708D5234645
:1079D000102201200F99C043C046C04686E007E050
:1079E0001022234601200F99C043FEF721FE7DE0BF
:1079F000002163280B460191009102910D9102D064
:107A00005B2807D03BE0E80601D40120A0600120FC
:107A1000009034E0E06801210D906269039890477E
:107A20005E2807D101200190E06801210D90626974
:107A3000039890472169002906D10B4604AA8F00BC
:107A4000491C0829D351FADB00285AD021690029A2
:107A500027D00298401C0290626903980121904748
:107A60005D28F1D10198002808D0002004AB8100E6
:107A7000401C5A58D24308285A50F8DB04AB2069FE
:107A8000002820791DD0400726D5029A00980D9B2A
:107A900000922246029001200F99C043C046C04682
:107AA00024E0C117C90E09184A114909930004AA14
:107AB0009A184901411A1368012088400343136052
:107AC000CAE74007224617480F9902D5C046C0466C
:107AD0000CE0C046C04609E00298224600990D9B82
:107AE000009002910F480F99C046C04600280ADA5C
:107AF000401C06D10E98002803D00020C04311B0CE
:107B0000F0BD0C98FBE7E90702D10C99491C0C91D8
:107B1000361800200E904CE6CCCCCC0CFFFFFF7F3B
:107B2000F1F7FFFFFEFFFFFF10B50146C2689007A7
:107B300003D0900607D5886A0AE000F00FF901210A
:107B40000160881E10BD8B694868C0180B69C01A97
:107B500040310B7A002B02D0497A401A10BD110334
:107B6000FCD50028FADD401E10BD000010B54348CA
:107B70005421FEF7E7FF42485421FEF7E3FF414856
:107B80005421FEF7DFFF40483C493D4B404A01602D
:107B90003E4803603B4810605A1C0A65411C196549
:107BA000012101653C48354A3AA17844FEF71AFEA6
:107BB000002804D1384878440C3800F00FF93848D0
:107BC0002F4A36A17844FEF70DFE002804D1344830
:107BD00078440C3800F002F932482A4A2FA1784440
:107BE000FEF700FE002804D12E4878440C3800F03F
:107BF000F5F840232148DC0000212246FFF7CCFCA9
:107C0000002804D0244878445C3800F0E7F81C4889
:107C1000224640230021FFF7BFFC002804D0204863
:107C200078445C3800F0DAF8164822461023002128
:107C3000FFF7B2FC002804D01A4878445C3800F002
:107C4000CDF810BD0F4870B5006D44080B486400B6
:107C5000FEF74AFE0A48FEF747FE0A48FEF744FED2
:107C600009E0206D450820466D00FEF73DFE2046E8
:107C7000FFF711F92C46002CF3D170BD7C2A0020AF
:107C8000D02A0020242B002044210020482100205D
:107C90004C210020720000006653000077000000B5
:107CA000535300004153000070B505460A4C0B4E7B
:107CB0000EE0206DC00708D0AC4206D03146E06827
:107CC000814302D12046FEF759FD206D440864002F
:107CD000002CEED170BD00007C2A002002020000C2
:107CE00010B5002801D000F027F810BD10B5002114
:107CF00002A000F059F8012010BD00005349475080
:107D000056464E3A205075726520766972747561D8
:107D10006C20666E2063616C6C65640010B500F0C9
:107D200094F80169002903D000220261884701E02C
:107D30008068804700F030F801491820ABBEFEE7AC
:107D40002600020010B500F005F8001D10BD00BFB0
:107D5000094F0000004870477C2B00200048704706
:107D6000902B002010B50346406801E003464068B0
:107D7000002801D08842F9D31868C3188B4206D076
:107D8000CB1CD808C000001D411A521A0146081D1C
:107D90000A60FFF780F810BD002000F089F8C046A7
:107DA000C0460120FFF7C8FF70B505460C460A2003
:107DB00000E06D1C00F070F8002D06D02878002837
:107DC000F7D102E0641C00F067F8002C02D02078A4
:107DD0000028F7D10A2000F05FF870BD10B500F060
:107DE0006DF8FFF77DFF10BD10B500F081F8FFF7CB
:107DF00077FF10BD01226946114B120382188A4297
:107E00001A6001D8114670471960704770B50C4C64
:107E10006D46012636032368AD1B9A18AA420ED878
:107E2000AD1A9019EE0F75196D10AA18904200D96D
:107E30001046C01D0B60C208D200D01A226070BD6F
:107E40005021002010B5FFF7A7FF70B500F02CF807
:107E500004680546002C15D12020FEF7EBFF040036
:107E600012D02C6009496160002020600849A1609F
:107E70002073206107496061A061002901D000F0F2
:107E80005FF8E061204670BDFFF786FF000000004C
:107E9000457E01000000000008B569460870032017
:107EA000ABBE08BD7047000000487047942B00200F
:107EB00010B500F067F8FFF713FF10BD10B50146CD
:107EC00002A0FFF771FF012010BD00005349475287
:107ED000545245443A2052656469726563743A208D
:107EE00063616E2774206F70656E3A200000000099
:107EF00010B5012805D0002103A0FFF755FF012090
:107F000010BD09A1F8E7000053494752544D454DB3
:107F10003A204F7574206F662068656170206D652A
:107F20006D6F7279000000003A2048656170206D25
:107F3000656D6F727920636F72727570746564001D
:107F400010B58820FEF776FF002801D000210170CF
:107F500010BD802904D8002802D00178002901D062
:107F6000002070470121017008307047002803D0BD
:107F700002460832914201D0002070470021017072
:107F80007047000010B5002102A0FFF70DFF01208F
:107F900010BD0000534947414252543A2041626E9D
:107FA0006F726D616C207465726D696E6174696F5A
:107FB0006E00000030B58C180278401C13071B0FB0
:107FC00001D10378401C120906D10278401C03E05D
:107FD0000578401C0D70491C5B1EF9D101E00B7047
:107FE000491C521EFBD1A142E6D3002030BD10B582
:107FF00004F073F904F070F903F06CFC10BD10B5D7
:10800000002102F096F910BDF8B52A4800690090E9
:108010002948C16B00294CD028494968002948DA11
:108020000021C163264E274D0C46A700F0590028B9
:108030003BD02549095D002920D00099E140C907BE
:108040000ED079190968090CC943890716D01F4A4F
:108050001168E140C90711D09268012190470DE0F5
:1080600079190968090CC943890707D1174A51686A
:10807000E140C90702D0926802219047781901684F
:108080008903890F11D00268032109048A43026021
:10809000009AE240D20703D002680A43026004E07B
:1080A00001680122520411430160641CE4B21F2CD8
:1080B000BBD3F8BD000500504061004000630040A4
:1080C000C0280020000700503C2900202421002067
:1080D000F8B525480021016041608160C160234AF4
:1080E00011605068224E002808D0B36AF06A01255A
:1080F0002D065B1900246041B362F06200205060DD
:108100003469601C2FD01B48002740687169401AF1
:1081100005022D0A24204443B06822185068A84262
:108120000ED8B3692D1AC719146A002B03D0D16970
:108130009069984702E09169D0698847601CE9D14D
:10814000B178F078814206D1401CC0B2F0700228AC
:1081500001D10020F07000060749800D0F5001206A
:10816000064900050860F8BD4011014000110140BA
:1081700058200020001501407420002000E200E09B
:1081800010B504F02FFA10BD10B50848406800285B
:1081900008D08047002804D0FF2105A2343102F026
:1081A000CFFE10BD03F054FB10BD000018200020CE
:1081B0002F7372632F6E524635313832322F6E6F05
:1081C000726469632F736F66746465766963655F53
:1081D00068616E646C65722E6370700030B4214803
:1081E000214A018CCBB20121012B17D1848C2407A9
:1081F00014D1048D2406250F03D1858D2D062D0F56
:108200000FD0240F012C03D1858D2D062D0F08D002
:10821000032C03D1848D2406240F02D0012B07D018
:1082200014E0124B53600123114CDB03A36102E005
:10823000838C1B070AD1038D1B061B0F042B05D152
:10824000808D0006000F01D10A48816091610A48C3
:10825000002242608205916041680029FCD030BC58
:1082600070470000C00F00F000050040DFFF07C0AE
:10827000006C004000060040000100400C484168CE
:108280000A060C4904D5CA69002A01D0012106E07A
:10829000406840070AD58868002807D000210648B2
:1082A0000068002802D0044A926810477047000016
:1082B00000230040002100408820002010B5024823
:1082C00001F038FB10BD00002E200020F0B59DB05D
:1082D000FB4DFC4EFC4CFD480690FD4801F063FF51
:1082E00000280AD0069802F047F8C1B2A170287899
:1082F000002804D0F74800F077FC1DB0F0BD042240
:10830000A25EA0688154A188491C09B2A18042786C
:10831000B1427DDB0C2A7CD1EB4A117892789142F4
:1083200078D1E94E8078B2681278824272D22A21DE
:10833000069802F02AF8E84804250468755F0020D2
:10834000B7680890002D66D02046C4301A902C30B3
:1083500019902C3018902C3012902C301B902C300F
:108360000E90204680300F90001F0D901438119011
:1083700014380B901438149014380190143802906B
:10838000142000900898782D7ED33918009A02980E
:10839000FEF770FB089E143D1436B919009A019837
:1083A000FEF768FB1436143DB919009A1498FEF7CD
:1083B00061FB1436143DB919009A0B98FEF75AFB6D
:1083C0001436143DB919009A1198FEF753FB143670
:1083D000143DB919009A0D98FEF74CFB1436089617
:1083E0001A982168808B03900868143D0168896899
:1083F000884700210091016814238E68029A03992E
:10840000B04719982168808B03900868016803E0E1
:10841000C3E0C4E0B1E0ABE0896888470021009187
:10842000016814238E68019A0399B047189821684F
:10843000808B159008680168896888470021009141
:10844000016814238E68149A1599B0471298216810
:10845000808B059008680168896888470021009131
:10846000016814238E680B9A0599B0471B98216800
:10847000808B0A900868016889688847002100910C
:10848000016814238E6800E01AE0119A0A99B04737
:108490000E982168808B0590086801688968884774
:1084A00000210091016814238E680D9A0599B04748
:1084B0000F98807C04F0C2FB002D00D060E757E0ED
:1084C0003918009A0298FEF7D5FA089E143D143622
:1084D000B919009A0198FEF7CDFA1436143DB9196E
:1084E000009A1498FEF7C6FA14362A46143AB919B7
:1084F0000B98FEF7BFFA1A982168878B0868016805
:108500008968884700250095016814238E683946DC
:10851000029AB04719982168878B086801688968B2
:1085200088470095016814238E683946019AB04740
:1085300018982168868B08680168896888470095C3
:10854000016814238F683146149AB847129822683C
:10855000868B106801688968884700950168042344
:108560008C6831460B9AA0470F98807C04F066FB1C
:108570002B21069801F009FFE8E1534C069801F021
:1085800004FF022004F05AFBA178069801F0FDFEDA
:108590008E21069801F0F9FED8E10C2A6FD0007800
:1085A00088426CD1484801788078814268D12A217C
:1085B000069801F0EAFE4448484B8168494C4A78E5
:1085C000881C0978D61AC91ECDB245499A4216D0E0
:1085D0000BDC0F3A072A72D213007B441B79DB189D
:1085E0009F440D21884FA7B9CD00062E67D23300D6
:1085F0007B441B79DB189F449C16447DAEC20078F7
:108600000D68012800D0002028712968AE8D086807
:1086100001688968884700210091016801238F68FB
:108620002A1D314684E00E68012D15D90378238078
:1086300041782E4F0902C91889B239602A4A8378D5
:10864000C07810800002C01880B2294A20801060D3
:1086500000044018386000E00078F0608420805BFF
:108660003168029008680168896888470021009194
:10867000016832468F682B460C32029958E06BE154
:108680005BE10E68012D08D901782180164A4078F7
:10869000108000024018208000E0007830815820CF
:1086A000805B316805900868016889688847002107
:1086B0000091016832462B4608328F6837E038E077
:1086C0002C200020040400004820002068280020FE
:1086D000202800204A2000204420002001300000F3
:1086E000342000206E210020702100207421002001
:1086F000782100200E68012D08D901782180427868
:108700009848028010024018208000E000787081B4
:10871000B020805B316805900868016889688847E7
:1087200000210091016832468F682B460A32059974
:10873000B8478D4DA9684A78881C0978C91ECFB200
:108740008A49192A75D02EDC162A44D0172A30D02F
:10875000182A3FD16EE00E68007870715820805B57
:108760003168019008680168896888470021009194
:10877000016832468F682B4608320199D8E70E68A7
:108780000078B0715820805B3168049008680168F7
:108790008968884700210091016832468F682B461E
:1087A00008320499C4E7724BD21802D0012A66D16C
:1087B00011E00C68007820712168268D0868016836
:1087C0008968884700210091016801238F68221D74
:1087D0003146B84753E00E68012F16D90178218041
:1087E0004378604A1B025918624B89B2196083783A
:1087F000C07810800002C01880B25F4A20801060EC
:10880000000440185B49086000E00078B060542024
:10881000805B316805900868016889688847002195
:108820000091016832468C683B4608320599A047A2
:1088300025E012E00C68FE2060712068AC22006820
:10884000165B01688968884700210091016801234F
:108850008F68621D3146B84711E00C68FF206071D7
:108860002068AC220068165B01688968884700218F
:108870000091016801238F68621D3146B847A868DE
:1088800041780A2911D13D4980780C68207121680E
:10889000A68C0868016889688847002100910168F2
:1088A00001238F68221D3146B847A86841780B29FB
:1088B0004CD13349002609680B9105780790002DAB
:1088C00044D0084617300890401C0490AC300C4649
:1088D00080340C90207C14210F1ABD4200D22F4608
:1088E000049A0799801889193A46FEF7C3F8207C44
:1088F000ED1BC019C1B2F6192174142903D00898D0
:10890000085C0A2816D10B9802680C98808B01919C
:108910000590106801688968884700210091016806
:10892000019B8F68049A0599B84700202074A07CA9
:1089300004F084F9002DCDD108E08E21069801F0D5
:1089400024FD09480178069801F01FFD0649002022
:10895000888008701DB0F0BD2078A1784018207084
:10896000BBE40000702100204820002038200020B7
:10897000F0CFFFFF7421002078210020402000204C
:1089800044200020F0B5054602888D488D4F002414
:10899000016883B0192A7DD047DC102A04D0112A3F
:1089A00044D0132A41D17FE0AA880092C80710D191
:1089B000834802F0B2F800280BD0834800214460BD
:1089C0008460C4600760C943046181827C48C046FA
:1089D000C0467D48009901F0BBFE28460E3001904C
:1089E0007748AE1D0078C00710D1754802F095F8A1
:1089F00000280BD07448002144608460C460076084
:108A0000C943046181826E48C046C04632786E49CF
:108A10009446721C4E680227019B00983E434E60AC
:108A2000CE68002E01D06146B0478CE0AA88009243
:108A3000C80710D1624802F070F800280BD06248D5
:108A4000002144608460C4600760C943046181827E
:108A50005B48C046C0465C485C4901F079FE584816
:108A6000AE790078C00710D1554802F056F80028BA
:108A70000BD05548002144608460C4600760C9433E
:108A8000046181824E48C046C0464F483146009A34
:108A9000022300E038E046689E4346600369002BED
:108AA00051D0104698474EE000941E206A4601942B
:108AB0001080907801221043E12210400C30DF2218
:108AC00010406A4690700720D07010201071C807BF
:108AD00010D13B4802F021F800280BD03A48002181
:108AE00044608460C4600760C94304618182344883
:108AF000C046C046344801F029FE6A4600217FDFA7
:108B00000004000C59D11EE0A87900281BD1C80729
:108B100010D12B4802F001F800280BD02A48002180
:108B200044608460C4600760C94304618182244852
:108B3000C046C046244841684908490041608068F1
:108B4000002800D0804722480078C00731D1204853
:108B500001F0E3FF00282CD01E4E1F4934717471C0
:108B6000B46034617461B461F461F1601B483060D9
:108B7000304660212030FDF7E5FF3046C0218030CF
:108B8000FDF7E0FF3046FF3060214130FDF7DAFFAE
:108B9000FF20A13084553046FF303021A330FDF74F
:108BA000CFFF0F4A0F49304601F070FF0848C0461A
:108BB000C0460848294601F03AF803B0F0BD00006D
:108BC0007C21002078D10100482E0020FFFF00000A
:108BD00058210020982B002068D1010030D10100DD
:108BE000006001008D9E0100F0B5C8490678C848B4
:108BF00087B00C680670C748C84F0278C648C84D91
:108C00000021002A0BD03B461A78AE54521CD2B237
:108C100002261A70022A0ED0042A1DD02EE05A2EE7
:108C200024D101802021BE48FDF78AFF2E7001204B
:108C30003870B84967E16A78A13A072A0AD2130066
:108C40007B441B79DB189F440505051010050300C4
:108C50000A210AE0068014E00388002B0ED16B780D
:108C6000A42B05D0A52B03D00621018007B0F0BDB1
:108C7000EB78AF781B029B1DFB18038000888242B3
:108C8000F4D1A44900200870A54843789F480068A3
:108C90003430A12B0BD09D49A24A09680192C03102
:108CA000A22B2DD0A42B3FD0A72B7CD1FAE0A02162
:108CB000095D052912D00A21C9436A4691802168BD
:108CC000848B0868016889688847002100910168E1
:108CD00002238D6801AA2146A84712E1A1886A46AD
:108CE00091802168848B086801688A689047002118
:108CF0000091016802238D6801AA2146A84700E17E
:108D00004D78A1340026002D4DDD874FA15D0198DF
:108D100001F03BFB3878002802D1022003F08EFFDF
:108D2000761CAE42F2DBECE08048022600686F461B
:108D3000002502910090795D019801F026FB7A48A8
:108D40000078002802D1022003F078FF6D1CB542A4
:108D5000F1DB02980025724E4570B079A72815D135
:108D60000321A02001550E21C9436A46918050205D
:108D7000005B21680290086801688968884700954F
:108D8000016802238F6801AA0299B847B079A02828
:108D900009D120180178032906D0042918D0072901
:108DA00029D006296CD0ACE004210170481F694627
:108DB0008880206834340068A48B016889688847FB
:108DC0000095016802238D6801AA2146A84798E012
:108DD0000521017068468580206834340068A48BC2
:108DE0000168896888470095016802238D6801AA97
:108DF0002146A84785E005700520C0436946888064
:108E0000206834340068A48B01688968884700951D
:108E1000016802238E6801AA2146B04761214902F8
:108E2000434801F0A1F94048424C0570002020560B
:108E3000401C04D124224049404803F0C5F9E168B0
:108E400060680860012003F0F9FE3D48012102F04E
:108E5000F9FB3B4C00202056401C04D1242236490B
:108E6000364803F0B1F92169606808607D20C000D0
:108E700003F0E4FE3248002102F0E4FB07B0F0BD4D
:108E8000A08869468880206834340068A48B016813
:108E90008A6890470095016802238D6801AA2146DF
:108EA000A8472EE00C21C9436A4611812168878BAF
:108EB00008680168896888470021009101680223D9
:108EC0008D6802AA3946A847A02006550E221D49E2
:108ED00002A8FDF7CFFDC0340E250094124F02AE5C
:108EE0000024315D019801F050FA3878002802D151
:108EF000022003F0A3FE641CAC42F2DB00980E21BA
:108F0000417006490020087007B0F0BD3C200020E9
:108F10005F210020602100205C2100205E210020D4
:108F20006C2D0020682800202C20002020CE01007D
:108F300020280020BC23002030CE01008CCE010070
:108F4000D423002022CE010084B0002202922821E6
:108F5000684603920181FF21913141818281C18163
:108F6000501C0107090F10316846017007220AA141
:108F70007CDF0004000C0CD10120400278DF0004EB
:108F8000000C06D102A87ADF0004000C01D177DFC3
:108F900080B204B07047000052616469616E3200B3
:108FA000F0B5FB4A00211469FA4F85B00646002C43
:108FB0007DD0A08C338898427AD1B568B67929786B
:108FC0003980F54B6A781A801202384651188FB2F0
:108FD00007800020401CC0B21428FBD3EF48874212
:108FE00068D1A91CEE4801F019FB00281AD0A7800F
:108FF0000321A0200155EBA25168106892680090EF
:10900000204602920191A1300A2269460546FDF7E9
:1090100031FD0A22C03462702946606800F032FDDA
:1090200005B0F0BD0521C943684681802068502104
:1090300000680E5B01688968884700250095016813
:1090400002238F6801AA3146B847C0346121490222
:10905000606800F049FDCE48D54C05706057401C53
:1090600004D12422D349D44803F0AEF8E168606803
:109070000860012003F0E2FDD048012102F0E2FA8D
:10908000CE4C00202056401C04D12422C949CA4895
:1090900003F09AF82169606808607D20C00003F041
:1090A000CDFDC648002102F0CDFA05B0F0BD56E175
:1090B000ECE0FFE7002F72D0C1480088401C8742D7
:1090C000F3D12046A130BF49019001F0C1FC062236
:1090D0000220022E09D9A318295CA033521C401C7F
:1090E000C0B25970D2B2B042F5D32046C030009021
:1090F00042700198921EC178417181780171417866
:10910000C170017881700291811C8C4600210E464D
:10911000002A27D9AC4B6546AD5D2D0269404D0054
:10912000090400D55D4069002D0400D559404D006B
:10913000090400D55D4069002D0400D559404D005B
:10914000090400D55D4069002D0400D559404D004B
:10915000090400D55D4069002D0400D55940761CF6
:109160009642D8D3029A0270C27842700279827015
:109170004279C2700171090A4171009801994278DF
:10918000406800F07FFC8E48A78007808F480088E9
:1091900087428AD30620A034207086E7FFE7A91C07
:1091A0007F4801F03BFA054602900421A0200155BA
:1091B0002046A1300E22864906460490FDF75AFC4F
:1091C000AF200555290AB0200155290CB1200155C1
:1091D000290EB22001551220014601902046C030D0
:1091E00000904170F0787071B07830717078F070E4
:1091F0003078B070039035461020B61C84460020AD
:1092000071490346F25C120250404200000400D54E
:109210004A405000120400D548404200000400D5E6
:109220004A405000120400D548404200000400D5D6
:109230004A405000120400D548404200000400D5C6
:109240004A405000120400D548405B1C6345D9D306
:1092500003992970E97869702979A9706979E970A9
:109260002871000A68710098019A4068049900F01A
:1092700009FC0298554A010988B21080090701D0FB
:10928000401C10804E48A78007800EE75020055BE9
:109290009D4264D1B068404B02783A804078188093
:1092A0000002801886B23E8068468680206800688A
:1092B00001688968884700210091016802238F684E
:1092C00001AA2946B847434943488E4232D1C420B7
:1092D0004B2125460059090200F006FC2C480126C6
:1092E0000670334C00202056401C04D12422314902
:1092F000314802F069FF2169606808602F48012148
:1093000002F0A0F92D4C00202056401C04D124224C
:109310002849294802F058FF2169606808607D20CB
:10932000C00003F08BFC2548002102F08BF9A0352A
:109330002E70BAE68642A8D10721A020015520460A
:10934000A1300A2225490546FDF794FBC0340A22C4
:109350002946606800F096FB0A206070A5E69469D3
:10936000002C3DD0B420005B3388984238D1204691
:109370008030B27942740546201DB168FDF77AFB52
:109380006B7C221D0B21686900F0DCFA8DE6000081
:109390002C2000206E21002070210020FFFF000003
:1093A0002D2000205AA40400C42E0100000000005B
:1093B000BC230020ACCD010008CE0100D423002046
:1093C000642100207ACD01002110000066210020D8
:1093D00090CD0100F0FF0000FDFF0000A2CD0100D4
:1093E000DD488268002A7AD01046938D3588103087
:1093F000AB4216D1B16814460978012900D000218A
:1094000021712168858B0868016889688847002177
:109410000091016801238F68221D2946B8470F215A
:1094200096E18420805AA8421DD1B579B1681446CE
:10943000012D03D9C94801F0F1F800E00878E06097
:109440008420005B2168019008680168896888476A
:1094500000210091016822468F682B460C32019949
:10946000B847102174E113469433988BA84222D157
:10947000B579B0681446012D09D9027839463A8089
:10948000B74F4078388000028018088000E00078EC
:109490006081998B2068019100680168896888471C
:1094A00000210091016822468F682B460A320199FB
:1094B000B84711214CE110463C30838BAB4223D19D
:1094C000B579B1681446012D0AD90B783A463B802C
:1094D000A34F497839800902C918118001E04AE098
:1094E00009782181808B216801900868016889686A
:1094F000884700210091016822468F682B46083278
:109500000199B847122123E1DC239B5AAB4216D1C3
:10951000B168B47909785171808B1168019008683D
:1095200015460168896888470021009101682A462C
:109530008F68234608320199B847142108E1FF23B8
:1095400009339B5AAB4216D1B168B579097891714C
:10955000808B116801900868144601688968884703
:1095600000210091016822468F682B46083201993C
:10957000B8471521ECE07848C268002A76D010463A
:10958000158D33880C309D4213D1B1681746097888
:1095900011711168848B0868016889688847002107
:1095A0000091016801238D683A1D2146A8471721C3
:1095B000CEE05420805A98421DD1B579B168144646
:1095C000012D03D9654801F029F800E00878A06072
:1095D0005420005B21680190086801688968884709
:1095E00000210091016822468F682B4608320199BC
:1095F000B8471621ACE08020805A984236D10192BB
:10960000B668144635785571106890320292918B85
:10961000039100680168896888470021009101680A
:1096200001238F68621D0399B8470220401C14284B
:10963000FCDB4C4C4C4F002D11D1B0783C21484301
:109640000830C0B220701321FDF7C2FA002902D001
:10965000401C207000E020700020C0433870424859
:1096600000214156491C8D4201D01EE563E0284689
:10967000132148433D4913220818711CFDF7FAF9DC
:109680002078401E854253D1384C00202178FD2996
:109690003CD161783C2251430391891D00916118AE
:1096A0004978FE2932D1009A521E002A17DD009B0C
:1096B0000126611EDB07F6079B1901D0491CFD201E
:1096C0004E780023521008D0891C0F788019DB19BE
:1096D0004E78C0B2DBB2521EF6D1C018C0B20099AB
:1096E000491E02D4615C0818C0B2FC21FDF770FA73
:1096F0000098205C884209D10198039B8030083390
:10970000C06B1A4A0D2100F01DF911E0019CFE20EA
:10971000607102982168868B0868016889688847AB
:1097200000210091016801238F68621D3146B8470E
:109730000D480570B9E4002C0AD0FF20E930005B29
:109740003288904204D1B06880340078A074ACE4D0
:10975000F3880748B26817E62C2000202D2000204F
:1097600070210020692100206A2100208C2D00201A
:109770002E2000207047000010B582B0044606215C
:10978000684601803C2141801921C901C180042122
:1097900081800648006801684968884701686A4610
:1097A0000B6A2146984702B010BD0000D02200206D
:1097B00010B5134C20680168896888470168C9683A
:1097C000884700281BD120466030017800290ED040
:1097D00000210170206801684968884701682246B5
:1097E0008B683832214610319847002807D120680D
:1097F0000168496888470168CA68211D904710BD03
:10980000D0220020004870471020002010B50846E4
:10981000114601F06DFD10BDF8B5314800F0A2FF12
:109820002F4D304C286801684968884704612868D2
:109830002D4C016849688847C46028682B4C016832
:10984000896888470646202001F0EEF8002545602B
:109850008560C560056145618561C56104603169E8
:1098600000293BD0C16130611D48012406466036A5
:10987000103006213470074600F098FB08211CA226
:1098800007233470384600F065FB1548002101724B
:109890001921C90141810446206801688968884707
:1098A0000168C9688847002817D1307800280CD093
:1098B00035702068016849688847016822468B68CE
:1098C000383239469847002807D12068016849682E
:1098D00088470168CA68211D9047F8BD3061C3E719
:1098E000D0220020B197010079970100A18F0100DB
:1098F00052616469616E320010B5808F09888842B8
:1099000006D104480068002800D0804701F0F2FC2E
:1099100010BD00000420002070B516461D46044608
:109920001422FDF7A7F825750020A661A083204624
:1099300070BD000002480021818001707047000066
:1099400048200020FFB583B006980D46C01C01F0EA
:1099500067F8454F0446787800280AD1434800F05C
:10996000C1FC012805D0424E00203056401C03D0D7
:1099700007E0002007B0F0BD24223E493E4802F037
:1099800023FCF16870680860642003F057F93649D9
:109990000120487006980221C01C009020708E465D
:1099A00040196570C1B2069800282BD00598069A18
:1099B000401E0023D20706D042785118401C02787E
:1099C000C9B2A2700123069A0025520813D0774627
:1099D000FF184678BC46FFB2E65571188678674690
:1099E0007519801C7F1C0678FFB29B1CC9B2EDB2B2
:1099F000E655521EEBD14819C1B2069A704680183E
:109A0000C0B28646704621540098264685B200248E
:109A1000002D0FDD19481A4F0190315D019800F0BB
:109A2000B4FC3878002802D1022003F007F9641C46
:109A3000AC42F2DB002000E0401C00998842FBDBD6
:109A40000B4C00202056401C04D1242209490A480E
:109A500002F0BAFB21696068086003480021417088
:109A6000012007B0F0BD0000482000206423002042
:109A7000BC23002030CE01008CCE010068280020DD
:109A80002C200020F8B500240E461546002A0FDDD4
:109A90000848094F0090315D009800F076FC387856
:109AA000002802D1022003F0C9F8641CAC42F2DBAA
:109AB000F8BD0000682800202C20002010B5E1210E
:109AC0004902064800F050FB2A21054800F05DFCE1
:109AD00000220449014800F04FFB10BD202800205F
:109AE00068280020CD82010010B5024800F03CFB40
:109AF00010BD0000202800207047F3B58DB005464A
:109B00000E9801F017FD079006AA07A90120A0DF13
:109B100000286BD168460E99008B8883002008903E
:109B20000E98007D00287CD92F46FF37A1370E986C
:109B3000017D0898814201D8002004E00E988169D7
:109B400008988000085803904069002808D10398BD
:109B5000008B002804D1039820300078022857D0C9
:109B6000039801F0E7FC07900398203009900278F1
:109B700003986C79018B4369408BE400641980344D
:109B800000910190029407A9002001F053FC0028E5
:109B90002CD16879039983000246401C5B196871D7
:109BA0001962039900268A830998007A00282FD920
:109BB0000998007AB04201D8002003E00398416A76
:109BC000B0000858044601F0B5FC07903978238BA3
:109BD0004900608B49196269FF31A33101910090FE
:109BE00007A9002001F07BFC002802D003200FB061
:109BF000F0BD3B78FF2198004219581C4131387064
:109C00005450A3830998761C007AF6B2B042CFD89C
:109C10000898401CC0B208900E98017D08988142B7
:109C200085D82879401C287100200FB0F0BDF0B510
:109C3000044608880D1D8DB001285FD0502807D03C
:109C4000522862D053282ED1052009906E883EE01C
:109C500062796E880020002A37D981000919096AC3
:109C6000203109788906890F2BD0C100091980316C
:109C70008988B14225D182001219126AA98B20323B
:109C80001278930601D58B0703D4D2060DD5C907E8
:109C90000BD0032103290AD004290DD0052902D1B4
:109CA000E16900292ED10DB0F0BD0421F2E7616910
:109CB000002927D10DB0F0BDA169002922D10DB036
:109CC000F0BD401CC0B28242C7D802200990607922
:109CD00000270028F3D928461C300B90F800001903
:109CE00080300088B0424BD10998022813D0032855
:109CF00039D004283DD0052842D13EE0087AA16839
:109D00000029DCD088470DB0F0BD0022288811461C
:109D1000A9DF0DB0F0BD6846078029798170298BD5
:109D20008180698BC1800B98029021696846002967
:109D300026D0049103900968002901D088470AE0E1
:109D400004984068002806D004998B69002B02D043
:109D50000831039A98470498C069002810D00399E5
:109D600002F0A7FF0CE06169002909D03846884756
:109D700006E0A1690029F9D102E0E1690029F5D1E5
:109D80007F1C6079FFB2B842A8D80DB0F0BD0000CA
:109D9000FFB50646364885B000780E9C354F0D4617
:109DA000C00710D1324800F0B8FE00280BD032486E
:109DB000002141608160C16001613049016087829A
:109DC0002B48C046C0462C4800F0C0FC0246E800C4
:109DD0008019214680300446002908D0008808AA4E
:109DE0000021079BA4DF00283CD109B0F0BDA800EA
:109DF0008019016A203109788906890F2BD0BA426F
:109E000029D021886B461980006A20300078C0066E
:109E100001D5012000E0022098700020988007986A
:109E2000039008A8029019461046A6DF0004000C13
:109E30001BD0082819D01249884216D0112814D0F6
:109E40001049884211D0208808AA0021079BA4DF6E
:109E5000002807D109E0208808AA0021079BA4DF79
:109E6000002802D0032009B0F0BD002009B0F0BDE9
:109E70007C210020FFFF0000482E002078D1010047
:109E800003300000013400000020704770B50A491B
:109E9000054601600C35094828606C68002C05D027
:109EA0002046E46900F0B8FD002CF9D1002068607C
:109EB00028460C3870BD000018D1010068D101009F
:109EC000F0B506461B4D34462878C03483B00328CD
:109ED00007D14B2149026068FFF706FE0A2002F015
:109EE000ADFEA020805D012822D1144912480A78D5
:109EF0000270497841700D20C043694688803068FF
:109F00003436B18B02910068016889688847002661
:109F10000096016802238F6801AA0299B8470222BD
:109F200005496068FFF7AEFD66702878401C287010
:109F300003B0F0BD632100206121002078CD010035
:109F400010B504461F21001DFCF7FCFD0020203445
:109F5000E07010BDFFB504460E462034E1789A1C2F
:109F60008A1881B01D461F2A02D9012005B0F0BD14
:109F7000071DC8196A1C0121FCF7BDFDE0783246B7
:109F8000401CC0B2E070C0190121FCF7B4FDE078BC
:109F90002A46401CC0B2E070C0190399FCF76AFD64
:109FA000E0784019E070002005B0F0BD13B5012342
:109FB00001AA1946FFF7CEFF02B010BD10B5044646
:109FC000064820601F21201DFCF7BCFD0021232036
:109FD000015501204002A084204610BD48D1010057
:109FE0007047F8B5164604461D461422069FFCF736
:109FF00041FD6661258300206783A08321462031CF
:10A00000079A0A7008986062099808722046F8BD9D
:10A0100010B4124C04600171C2800381012908D080
:10A020000124A403032907D0202A0CD22021C180B7
:10A030000CE00021C18009E0A02A01D2A021F6E7AE
:10A04000A24202D802E0A24200D9C480002B03D071
:10A0500003498B4200D9018110BC704758D10100DF
:10A06000FF3F0000704770B500250E46044605709E
:10A070001021401CFCF764FD658210223146601CF3
:10A08000FCF7F8FCF078B1780002084340BA60822F
:10A09000002103E0022912D003290ED06018407875
:10A0A000002805D001202070E5702571204670BD84
:10A0B000491C1029EED3204670BD0421EEE7032190
:10A0C000E8E770B5044600200D4620701021601CA2
:10A0D000FCF736FD6582204670BD70B50446006809
:10A0E000012203690021204698470546401C0ED0F6
:10A0F000206802220369002120469847064620680E
:10A1000000220369294620469847304670BD00204A
:10A11000C04370BD70B4084901600021074A102394
:10A120000D468C001659864200D11551491C5B1E04
:10A13000F7D170BC70470000E4D1010080280020F6
:10A1400010B5001D02F018F910BD10B50C46001D29
:10A1500002F000FA204610BD1C22514310B5081829
:10A160000C3000F0D5F810BD70B504460D46001D4A
:10A1700002F0D8F8656470BD70B515460446002934
:10A180000BD01C20684300190C3000F0CEF80122DF
:10A190002946201D02F07AF970BD00222946201DB3
:10A1A00002F074F970BD10B5001D02F0E2F910BDA7
:10A1B00070B50E460E490160002141608160154670
:10A1C00002231C220B490C3000F076FC04464B2085
:10A1D0000C3CC00160642A463146201D02F0DCF8C8
:10A1E00022460549201D02F047F9204670BD0000B7
:10A1F00010D20100FF7F010059A1010001688968A8
:10A20000084708B50090083002F038FC08BD10B5CA
:10A21000083002F09BFC10BD10B5044605482060D4
:10A220000020A060E06020616061034802F0AEFCA5
:10A23000204610BD20D20100FDA1010010B500296B
:10A2400006D0012905D0022902D13C3000F060F887
:10A2500010BD2030FAE710B504461C34002908D0A0
:10A26000203000F062F801221146204601F098FAF1
:10A2700010BD00220121204601F092FA10BD00001D
:10A2800070B50D460F490160002141608160C160D9
:10A29000016141618161C161203000F04AF8002113
:10A2A0001C3000F046F83C3804460346064A29466E
:10A2B0001C3001F041FA2946201D01F003FA204626
:10A2C00070BD000034D201003DA2010010B504466B
:10A2D0000348206020461C3001F026FA204610BDBD
:10A2E00034D2010010B5044604202056401C04D18D
:10A2F0002C220549054801F067FFA0690068A168A4
:10A30000084000D0012010BDA4CF01008CCF010077
:10A310000168002900D008474368002B04D001469B
:10A32000826908311846104770470160002141607A
:10A3300070470022426082610160704710B51C4680
:10A34000FFF736FF2146483000F056F848380349F9
:10A3500001600349C1640349816410BD44D2010016
:10A3600090D201005CD2010010B5483000F068F8CE
:10A37000483810BD0020704710B504464069FCF70E
:10A3800018FA606901F040F910BD70B504460D4639
:10A390004069FCF70EFA2846616901F043F970BD87
:10A3A000F8B58E180D4607460C46B14209D03868FC
:10A3B000816A38468847411C03D02070641CB4422F
:10A3C000F5D1601BF8BD0020704700207047F8B53C
:10A3D0008E180D4607460C46B14209D038682178E0
:10A3E000426A641C38469047401C01D0B442F5D103
:10A3F000601BF8BD0020704710B584B000F0A2F8D3
:10A4000004460B4820600B486060002060612246D3
:10A4100009A16846FBF7C6FF08A16846FCF72CFABD
:10A4200000216061FCF752FA204604B010BD000024
:10A43000A0D20100D4D201003A257000772B000091
:10A4400010B5044605482060054860606069FCF767
:10A450004BFA204600F088F810BD0000A0D20100A1
:10A46000D4D2010070B515461E460446FFF7CFFE54
:10A47000E661A56102F048FBA269E1698218002348
:10A480004B412046FFF7BDFE70BD10B50446C368C2
:10A4900082688169C069521843412046FFF7B1FEC6
:10A4A00020462030FFF734FF10BD007B70470000CE
:10A4B00070B506460C480D460468002C12D0A06802
:10A4C00000280CD02A463146FCF784FA002806D131
:10A4D000A068FCF75DFAA84201D1204670BD64680F
:10A4E000002CECD1002070BD38210020064B036009
:10A4F0000023436081600273002903D003490A6886
:10A500004260086070470000F8D201003821002046
:10A510000A4901608168002905D0094A1168814211
:10A5200002D14168116070474A68824203D01146E7
:10A5300052688242FBD142684A607047F8D20100FB
:10A540003821002010B5054A04C00022FFF7CEFFD5
:10A55000001F034901600349416010BDE4D10100BF
:10A5600008D3010034D3010010B5001DFFF7D0FF60
:10A57000001FFFF7CFFD10BD10B50446406800284E
:10A5800003D0FFF792FF012801D0002010BD6068C2
:10A5900010BD10B504464068002803D0FFF785FFC2
:10A5A000002801D0002010BD60680028FBD0001FEB
:10A5B00010BD4068002800D00120704710B54068E9
:10A5C000002804D0FFF771FF002801D0002010BD43
:10A5D000012010BD0068704710B5044600202060BF
:10A5E000606008782F280FD1487800280CD04B1CC9
:10A5F00000211A46236010782F2807D0002807D0A2
:10A60000491C521C2260F6E7204610BD501C2060F9
:10A610001846FFF74DFF6060204610BD30B40C4B6C
:10A620000A781A8048780B4C000280180A4A80B2D7
:10A6300010608D78C97821800902491989B2198082
:10A64000064B196009040818106030BC7047000000
:10A650006E2100207021002074210020782100202C
:10A6600038B51122684602700C460846FCF790F98E
:10A6700082B2214668467CDF002800D0032038BD26
:10A680000A79012A01D10220704710B40446012042
:10A690008003032ACA8885B01DD0202A17D382429E
:10A6A00015D80889124A904211D8002000900190D4
:10A6B0000290039004900B796A4613701072C88858
:10A6C000108208895082684673DF002808D005B0E0
:10A6D00010BC03207047A02AF9D38242F7D8E0E7E4
:10A6E000606801210843606005B010BC002070471D
:10A6F000FF3F0000F8B515460C46084600F07FF90C
:10A700001F2801D90120F8BD204600F078F9002863
:10A710001AD0284600F073F90746284600F065F97C
:10A720000646204600F06BF90546204600F05DF92C
:10A730003B463246294672DF002805D1204600F00C
:10A740005CF978DF0028DED00320F8BD808A7047EE
:10A75000818270470846114675DF002800D003202B
:10A7600070470000F0B5054600689FB00168C968F1
:10A77000884700287ED14C480078C0077BD14A48E2
:10A7800000F0CBF9002876D00020484C14904848BF
:10A79000656020600027204627810A301421109030
:10A7A000FCF7CEF92546203542491AA8FFF75BFC95
:10A7B000014602201823119326460D900C9008366E
:10A7C00014222846FCF756F96E610D9828830C9ADE
:10A7D0006A83AF8328462030119B03706F62077233
:10A7E0004436354915A8FFF73EFC14210D910A4661
:10A7F0000C91042301460E933046FCF73BF9109A66
:10A8000072610D9B33830C997183B783314620317C
:10A810000E98087077620F72284F387800283AD166
:10A82000FF2020726072264915A813961295FFF733
:10A830001AFC0146022312AA04A8FFF76DF860680B
:10A84000006801688968884701680A6804A9904718
:10A850001C4914980860012038701B4960684E68D4
:10A8600000680D680168896888470746202000F065
:10A87000DBF801E013E011E00021016001614161BA
:10A88000C66085604460C1611049816139690029F1
:10A8900007D0C16138610448C046C04600201FB0DF
:10A8A000F0BD3861F7E70000002000208021002083
:10A8B0000CD1010028CD010038CD01005421002029
:10A8C00018CD01000420002010CD010085CC01002E
:10A8D00010B53830FFF784FB2838FFF781FB0C38C0
:10A8E000FFF7C0FB001F10BD40DF704770B51C486C
:10A8F0000078C00732D11A4800F00FF900282DD097
:10A90000184C002525716571A56025616561A561FB
:10A910001549E561E160154820602046602120303E
:10A92000FCF710F92046C0218030FCF70BF92046D7
:10A93000FF3060214130FCF705F9FF20A1300555BB
:10A940002046FF303021A330FCF7FAF82046084AB1
:10A95000084900F09BF80248C046C046014870BD57
:10A9600058210020982B002068D1010030D101002F
:10A97000006001008D9E010010B5044600F014FD3A
:10A980002068416920468847002010BD10B5044862
:10A99000FBF7F0FB0348FBF7EDFB002010BD0000C8
:10A9A00020A1070040420F0010B50C480078C007F6
:10A9B00012D10A4800F0B1F800280DD00848002153
:10A9C00041608160C1600161064901600021C943A5
:10A9D00081820248C046C046014810BD7C2100204B
:10A9E000482E002078D1010070472321095C0029FE
:10A9F00001D0001D704700207047808C70472030C8
:10AA0000C078704710B54838FFF79AFB10BD10B5F5
:10AA10004838FFF79AFB10BD10B5FCF73CFA10BDA3
:10AA200010B500F001F810BD10B5040008D10124E4
:10AA300006E0FCF7F7F90068002800D103488047DA
:10AA40002046FCF7F7F90028F3D010BDE1760100AD
:10AA50000A7802704B7843708A788270CA78C27024
:10AA60000B7903714A79427170470A7802704B780A
:10AA700043708A788270CA78C2700B7903714A7900
:10AA800042718A798271CB79C3717047F7B50746F5
:10AA90000E4600251020FCF7CDF904000AD06760AF
:10AAA000A6600298E060FCF7C1F9016821600460CB
:10AAB0002846FEBD0125FBE7FFB581B01C461746C1
:10AAC0000E0006D0019D02E02846B047ED19641E35
:10AAD000FAD2019805B0F0BDF8B50646FCF7A6F924
:10AAE000009015E0002E04D0E068B04201D0254669
:10AAF0000FE0206828600098A168076860688847B0
:10AB00002046FCF7C8F900980068B84201D00098C8
:10AB100005462C68002CE5D1F8BD0168002901D05C
:10AB200000207047012101600846704710B50020E1
:10AB3000FCF7D0FD10BD000010B5044804490160C9
:10AB4000044A0549FFF7A2FF10BD000010200020B5
:10AB5000B4D1010000600100E9A9010010B5002393
:10AB60001C2216210348FFF7E9FB034A0349FFF7BC
:10AB70008DFF10BD202800200060010069A30100A6
:10AB800010B5354CFEF73EFE00232060A02219468A
:10AB9000201DFFF73DFA0C30FFF710FA2830FFF7C1
:10ABA0000DFA044601212830383C0170204610304F
:10ABB000FFF7C6F920463830FFF7C2F92046274A8A
:10ABC0002749FFF763FF2748FEF796FF2648002432
:10ABD000046044608460C46004610D21446100F03D
:10ABE00071FD22480721046044608460C4600461F0
:10ABF000446100F067FD03211D48FFF741FB174A40
:10AC00001C49FFF743FF1C48022104604460846034
:10AC1000C4600461446100F055FD184813210460CC
:10AC200044608460C4600461446100F04BFD1448DA
:10AC30001421046044608460C4600461446100F0D5
:10AC400041FD10481121046044608460C4600461C7
:10AC5000446100F037FD10BDD022002000600100EB
:10AC6000D1A801002E200020342300204C230020F6
:10AC700064230020CDA20100BC230020D4230020A7
:10AC8000EC2300200424002002486A46C008C000CB
:10AC900070470000672E002030380A2801D20120BA
:10ACA0007047002070470000032801DA0020704739
:10ACB00081000748002209184039486B4A63002880
:10ACC00002D00168496808470020C043704700006F
:10ACD00080280020032801DA002070470649800000
:10ACE00040184038406B002802D001688969084745
:10ACF0000020C0437047000080280020032801DAAC
:10AD0000012070470649800040184038406B0028F9
:10AD100002D00168C96808470020C043704700009E
:10AD200080280020F0B50E4683B004464649FBF764
:10AD30000BFF464D002815D045492046FBF704FF80
:10AD400000281AD043492046FBF7FEFE00281FD0FA
:10AD5000414F0025A8003858002824D06D1C102D24
:10AD6000F8D36CE02868002804D10B2209213B4865
:10AD700001F012FB002003B0F0BD2868002804D1C8
:10AD80000B220921354801F007FB012003B0F0BD7B
:10AD90002868002804D10B220921304801F0FCFA70
:10ADA000022003B0F0BD102D49D220783A2811D0EE
:10ADB00021466846FFF710FC6846FFF7FAFB0028BB
:10ADC0003DD06846FFF7FAFB0028684609D0FFF738
:10ADD000E0FB2DE06A4622A12046FBF709FC009823
:10ADE00026E0FFF7C9FB002829D0B10701D50224CE
:10ADF00008E0710701D5012404E0310701D50924D9
:10AE000000E000243107890F02D0012149020C43E0
:10AE1000710702D5012189020C4326460446684683
:10AE2000FFF7D8FB014620683246836820469847E2
:10AE3000002804D0A9007850E81C03B0F0BD002021
:10AE4000C04303B0F0BD000014CF01008C200020EF
:10AE50001BCF010023CF0100802800209420002078
:10AE60003A25700070B514460D4603280EDA0F48D7
:10AE70000068002804D10B2209210D4801F08CFA4A
:10AE80000B4801F079FA287001200AE00949800096
:10AE900040184038406B002805D001688B6829466F
:10AEA0009847201A70BD0020C04370BD8C20002040
:10AEB0009420002080280020032801DA0020704719
:10AEC000064A800080184038406B002803D0026892
:10AED0001369002218470020C043704780280020D3
:10AEE00070B514460E46032814DA1248006800288C
:10AEF00004D10B220921104801F04EFA0025002C44
:10AF000006D9715D0C4801F025FB6D1CA542F8D3F4
:10AF100020460AE00949800040184038406B00286C
:10AF200005D001680B6831469847201A70BD002093
:10AF3000C04370BD8C200020942000208028002079
:10AF40000004000C07D1BFF34F8F04490248C860CA
:10AF5000BFF34F8FFEE770470400FA0500ED00E0F5
:10AF600010B405494968054B9C6ADB6A214343607C
:10AF7000016010BC002070470015014058200020DF
:10AF800070B4144DAC68002C12D0002A13D00028E5
:10AF900011D02D780023002D07DD24265E43A65D09
:10AFA000002E0BD05B1CAB42F7DB70BC042070475B
:10AFB00070BC0820704770BC07207047242501260C
:10AFC0005D4366552C196170A261036070BC00205E
:10AFD0007047000058200020FFB581B01D4616467E
:10AFE0000F4698077DD1002D7BD04A480024007978
:10AFF000002819D001204849400408604749401002
:10B0000088604749801C88604649012048602F209D
:10B01000FBF7ECF84349012088603E4844612F204B
:10B02000FBF7E4F83B4804713A490A9888610F70CD
:10B0300028468D60002F13D0014624391038FA07B6
:10B0400003D024310C70243004707A0808D02423F3
:10B050005C541C54483148300C700470521EF6D1B8
:10B060002420474378192B4D032169702946C86075
:10B0700001460470183144708670416032461823CE
:10B080005A430472531844728672C3600474447441
:10B09000D118867441610020C043294608610846E2
:10B0A0008470C4700124204923050B601F48026886
:10B0B000C026120A1202324302601D4A13601D4E5E
:10B0C0000198B0601C4B1868FF273F02B843032764
:10B0D000BF033843186028460079002814D103E0E4
:10B0E000FFE7072005B0F0BD01200C4B00045860BD
:10B0F0000B4B801C58600004086010600948046015
:10B100002F20FBF773F82C7170686861002005B080
:10B11000F0BD00005820002080E100E04013014015
:10B12000001301400010014080E200E014E400E060
:10B1300000E100E00015014010E400E0F0B4354B00
:10B140009D68002D0CD01C78A04201D2052902D2A6
:10B15000F0BC07207047242444432E5D012E02D00A
:10B16000F0BC0820704764196478012C16D00026C2
:10B17000294D6C68E405E40D20D0103C64B2002C2D
:10B180000EDA27073F0F083FBF08BF007D19ED69A2
:10B19000A407E40EE5402C06A40F0BE00E46E7E7FB
:10B1A000A5081E4FAD00ED192D68A407E40EE5407B
:10B1B0002C06A40F012C26D0032C26D002248C466A
:10B1C000DB68E100CC186378A7781D465B1C9F42C2
:10B1D00000D1002327789F4219D0182167684D437A
:10B1E000791914D001250D7048600D4840688860B9
:10B1F0000E6160464A61C8600A49637028050860AC
:10B20000F0BC002070470024D9E70124D7E7F0BC48
:10B21000042070475820002000ED00E000E400E02A
:10B220000015014000E200E02D4A9168002909D094
:10B230001378984201D30720704724234343C95C05
:10B24000012901D008207047F0B4264B5968042426
:10B25000C905C90D00291ED0103949B200290CDAE0
:10B260000D072D0F083DAD08AD00EB18DB69890710
:10B27000C90ECB401906890F09E08B081A4D9B00B7
:10B280005B191B688907C90ECB401906890F012974
:10B290001FD003291FD00221D268C9008A18517813
:10B2A00095780B46491C8D4200D100211678002567
:10B2B0008E4212D0182756687B43F3180DD0022413
:10B2C0001C70586051700949E00408602846F0BCC1
:10B2D00070470021E0E70121DEE72046F0BC70471F
:10B2E0005820002000ED00E000E400E000E200E073
:10B2F0007047000070B5184800688047B1203CDFF7
:10B30000002803D015A23F21FFF71AFE11DF002805
:10B3100003D012A24221FFF713FE1E4900200A6843
:10B320001D4B01210C468440144204D0C506ED0E8D
:10B330000C46AC401C60401C2028F3D3174C6069BD
:10B3400013DF002803D005A24721FFF7F9FD60694C
:10B3500000F026F870BD0000142000202F737263E7
:10B360002F6E524635313832322F6E6F72646963F8
:10B370002F626F6F746C6F616465725F6466752FA6
:10B380006466755F6170705F68616E646C65722E73
:10B390006300000000E100E080E100E00010001028
:10B3A00010B5FAF713FF10BD00B583B0002350228B
:10B3B0001A49082001F0F0F8002802D00004000C1F
:10B3C00007D017480068029002A860DF002810D15B
:10B3D00007E0BFF34F8F14491248C860BFF34F8F87
:10B3E000FEE7684671DF002803D1694670DF002858
:10B3F00002D0072003B000BD0C4801F0C3F80004E0
:10B40000000CF7D10A4801F0E3F80004000CF1D178
:10B41000FDF79AFD002003B000BD0000F8210020D8
:10B4200048CD01000400FA0500ED00E08589010027
:10B4300075970100F0B58FB09C468646D306F9207B
:10B440000024149E159D002B01DB930608D56F4642
:10B450000194BB7903409B1CBB7111233B717B7131
:10B460000294039404940594069407946B460894FC
:10B470001A72D30601D4930601D501AB00E0002374
:10B480006F4600940793BB7803409B1CBB70AE4291
:10B4900002D001273B4301E05B085B006F46BB70B5
:10B4A000900703D4D00601D4900603D501200346AB
:10B4B00010333B70100701D51120787009910B945F
:10B4C0000A970C94BE853D8660460D9009AA02A994
:10B4D0007046169BA2DF0004000C0FB0F0BDF0B464
:10B4E00088B000276D460097AC78F9252C4084463B
:10B4F0000C9EA41C0D986D46AC70B34202D0012581
:10B500002C4301E0640864006D46AC7011242C707B
:10B510006C7002910497059703952B82AE82069278
:10B52000024602A96046A3DF08B0F0BC0004000C8C
:10B5300070470000F0B587B0054600200090688A8B
:10B54000694608802978012000292FD000A8023000
:10B55000019028486D1C0068002400280ED9264E52
:10B56000244F20012018801910222946FBF7E2F908
:10B5700000281ED03868641C8442F2D3002069463B
:10B580000871C91D08220F240E26231AEB5C4B708C
:10B59000331A891CEB5C801C0B70521EF5D101A97B
:10B5A00002A863DF00280BD000240BE069468870F6
:10B5B0001DE0200120188019017C0198017016E01F
:10B5C00068460479294668460A4D84702868082828
:10B5D0000DD002018018084E10228019FBF74AFA9C
:10B5E00028680101411889190C74401C28600098D2
:10B5F00007B0F0BD08200020482200207047002836
:10B6000001D000F0E5FDFEE710B50168002902DC7D
:10B61000FBF756FD10BD491E016041684A1C42609F
:10B62000087810BD10B58A68002A02DCFBF742FEDC
:10B6300010BD521E8A604A68C0B2531C4B60107025
:10B6400010BD000070B50446002020560D46401C79
:10B6500004D12A220A490BA000F0B6FD0F48002DA4
:10B6600008D0012D05D10022A25601219200101808
:10B67000016070BD0021625692001018016070BD1B
:10B680002CCF01006F626A2D3E70696E20213D2033
:10B690002850696E4E616D65294E430000070050C9
:10B6A00001704A1C0AD001228A4005494260C160EB
:10B6B000091D0161091D4161091D8160704700007C
:10B6C0000805005070B5032605460C46FFF7E8FF55
:10B6D000611C07D000212846FFF7B4FF31462846F9
:10B6E00000F0AEF870BD000070B50D4604460026AF
:10B6F000FFF7D6FF6D1C12D0A057401C04D12422A6
:10B700000749084800F060FD216960680860012170
:10B710002046FFF797FF3146204600F091F870BDB4
:10B7200014D00100FCCF010000680021014A800014
:10B7300011507047C028002010B44C1C1DD0114C73
:10B74000A2600160104A0020D063104A88001350A4
:10B750000F4A012050540F49C00748600E48416805
:10B76000FF221204914303229205891841600B497C
:10B770004020086010BC00207047002010BCC0436F
:10B78000704700002421002040610040C0280020B4
:10B790003C2900200063004000E400E000E100E0FC
:10B7A000F0B40368234D9B005B191C680326360424
:10B7B000B4431C60204B01241F68002A0FD00129CC
:10B7C00002D0022905D019E001788C403C431C606E
:10B7D00014E001788C4059680C435C600EE001294C
:10B7E00002D0022905D009E001788C40A7431F60F0
:10B7F00004E001788C405968A143596000681968D9
:10B80000C140C90703D15968C140C90710D00B49CD
:10B810000969C140C90704D080004019016831435B
:10B8200005E08000401901680122520411430160C3
:10B83000F0BC704700070050242100200005005094
:10B8400010B502460020105600F048FD10BD000063
:10B85000F8B51E4C2078002837D02069002807D082
:10B860000026E068002805D00025002E04D013E053
:10B870000126F6E70125F8E7684651DF052806D0DE
:10B88000002806D0124A6921FFF75AFB04E001267E
:10B8900002E0216900988847002D12D1608869462E
:10B8A0000880A06861DF052806D0002806D0084A75
:10B8B0008021FFF745FB04E0012502E0E168A06874
:10B8C0008847002ED8D0002DCFD0F8BD18200020FA
:10B8D0004CCD0100FE4BFF489D440021FFF7B2FE16
:10B8E000FC480321FFF7ACFFFB480021FFF7AAFE4D
:10B8F000F9480321FFF7A4FFF849F948FEF7ABFC2C
:10B90000F8480121FFF79EFEF64C00202056401C0F
:10B9100004D12422F449F54800F056FCE16860683F
:10B920000860F3480021FFF78DFEF2480021FFF781
:10B9300089FEF0480021FFF783FFEF480021FFF761
:10B9400081FEED480021FFF77BFFE9480021FFF76A
:10B9500079FEE7480021FFF773FFFDF75DFFFFA9C0
:10B96000E74A8431E5480A64FFAC4864C4340025E2
:10B9700020462F46258114210A30FBF7E1F82046A6
:10B98000E049F430FEF76FFB01460220182203461F
:10B9900001920090224620460297039708322030F9
:10B9A000FEF71FFB0446D948203CD7496844FEF700
:10B9B0005AFB0421142201911346009201462246AB
:10B9C0002046029703970A324C30FEF70AFBD04F0D
:10B9D000044638784C3C00283ED1FF212172617228
:10B9E000CC4821462031684401672C314167CA495F
:10B9F000A030FEF738FBC94A01466A4416461036A5
:10BA000002233046FDF788FF606800680168896896
:10BA1000884701680A6831469047C148C1490560B6
:10BA2000012038706068CE6800688D680168896898
:10BA3000884707462020FEF7F7FF002101600161DB
:10BA40004161C66085604460C161B74981613969FF
:10BA500000297DD0C1613861FFA8B449C430486075
:10BA6000A64800248290B44882ADB14F8394849458
:10BA7000B04985946844FEF724FB01460120034643
:10BA800000901A26284602942A1D0196039410302D
:10BA9000FEF7A7FA0546AA48103DA8496844FEF7F4
:10BAA00010FB0146022000902A46284602940123FA
:10BAB0000832019603943C30FEF793FA0546A248FB
:10BAC0003C3DA0496844FEF7FCFA01460420009082
:10BAD0002A462846029401230C32019603946830CA
